:020000021000EC
:10F800000C9446FC0C9465FC0C9465FC0C9465FC13
:10F810000C9465FC0C9465FC0C9465FC0C9465FCE4
:10F820000C9465FC0C9465FC0C9465FC0C9465FCD4
:10F830000C9465FC0C9465FC0C9465FC0C9465FCC4
:10F840000C9465FC0C9465FC0C9465FC0C9465FCB4
:10F850000C9465FC0C9465FC0C9465FC0C9465FCA4
:10F860000C9465FC0C9465FC0C9465FC0C9465FC94
:10F870000C9465FC0C9465FC0C9465FC0C9465FC84
:10F880000C9465FC0C9465FC0C9465FC11241FBE63
:10F89000CFEFD0E4DEBFCDBF11E0A0E0B1E0E4E007
:10F8A000FFEF01E00BBF02C007900D92A230B1073D
:10F8B000D9F722E0A2E0B1E001C01D92AD30B2075D
:10F8C000E1F70E945DFD0C9480FF0C9400FC909188
:10F8D0000501913039F49091C00095FFFCCF8093E1
:10F8E000C6000895923031F49091C80095FFFCCF86
:10F8F0008093CE000895CF93982F85958595859513
:10F900008595805D9F709A3014F0C7E501C0C0E313
:10F91000C90F0E9467FC8C2FCF910C9467FCCF928B
:10F92000DF92EF92FF92809105018130E9F4C12CC2
:10F93000D12C76018091C00087FD13C08FEFC81ACB
:10F94000D80AE80AF80A81E0C81682E1D8068AE7F0
:10F95000E806F10478F3E0910201F09103010995C2
:10F96000E9CF8091C60020C08230E9F4C12CD12CAF
:10F9700076018091C80087FD13C08FEFC81AD80A9E
:10F98000E80AF80A81E0C81682E1D8068AE7E806A4
:10F99000F10478F3E0910201F09103010995E9CFB8
:10F9A0008091CE0001C080E0FF90EF90DF90CF907B
:10F9B0000895CF930E948FFCC82F0E9467FCC13628
:10F9C00014F089EA03C0C0331CF080ED8C0F01C035
:10F9D0008C2FCF910895CF930E94D9FCC82F0E94FD
:10F9E000D9FC90E1C99F800D1124CF910895909189
:10F9F0000501815090F0913039F42091C00027FF2B
:10FA0000FCCF2091C600F5CF923099F72091C80025
:10FA100027FFFCCF2091CE00ECCF0895CF93C82FC5
:10FA20000E948FFC803251F484E10E9467FC8C2F8D
:10FA30000E9467FC80E1CF910C9467FC80910401E7
:10FA40008F5F80930401853031F4E0910201F091E1
:10FA50000301CF910994CF9108950E948FFC8032C9
:10FA600031F484E10E9467FC80E10C9467FC809192
:10FA700004018F5F80930401853029F4E091020135
:10FA8000F0910301099408958823B1F0289A2FEF8B
:10FA900031EE94E0215030409040E1F700C000008A
:10FAA00028982FEF31EE94E0215030409040E1F75C
:10FAB00000C000008150E8CF089594B714BE809133
:10FAC00060008861809360001092600091FD05C025
:10FAD000E0910201F0910301099581E08093050115
:10FAE000E0E0F0E0E49120E12093C4001092C50032
:10FAF0001092C00096E09093C20088E18093C1000C
:10FB000030910501323051F42093CC001092CD0099
:10FB10001092C8009093CA008093C900209A8091E7
:10FB200005018D5F0E9444FDFF24F3940E948FFC29
:10FB3000803309F443C08133E1F40E948FFC8032AA
:10FB400009F0BAC184E10E9467FC81E40E9467FC6D
:10FB500086E50E9467FC82E50E9467FC80E20E94C5
:10FB600067FC89E40E9467FC83E50E9467FC80E5EE
:10FB70009AC1803439F40E948FFC8638F8F00E94D4
:10FB80008FFC1CC08134A9F40E948FFC803811F4D2
:10FB900082E003C0813821F481E00E940EFDC6CFCF
:10FBA000823811F480E1F9CF883909F03FC083E051
:10FBB000F4CF823431F484E10E94F7FC0E942DFDE1
:10FBC000B5CF853411F485E0F7CF982F9D7F903520
:10FBD000A9F3813531F40E942DFD88E08093600007
:10FBE000FFCF853549F40E948FFC809306010E9467
:10FBF0008FFC80930701E2CF8635D1F40E948FFC01
:10FC0000803389F40E948FFC0E948FFC182F0E9481
:10FC10008FFC111102C08EE1C0CF113011F487E9C1
:10FC2000BCCF85E0BACF83E00E94F7FC80E0B5CF7F
:10FC3000843609F0C8C00E948FFC809309020E949C
:10FC40008FFC8093080280910C028E7F80930C02BF
:10FC50000E948FFC853429F480910C02816080938E
:10FC60000C0208E011E02091080230910902C8015D
:10FC7000885091408217930730F40E948FFCF8015E
:10FC800081938F01F0CF0E948FFC803209F014C164
:10FC900080910C0280FF2AC080910601909107019B
:10FCA000880F991F909307018093060108E011E0E7
:10FCB0002091080230910902C801885091408217B2
:10FCC000930708F07EC0F80161918F0180910601D1
:10FCD000909107010E9472FF8091060190910701A7
:10FCE00001969093070180930601E2CF809107016E
:10FCF000880F880B8F2180930B028BBF80910601A8
:10FD000090910701880F991F909307018093060136
:10FD10008091080280FF09C0809108029091090239
:10FD200001969093090280930802F894F999FECF06
:10FD30001127E0910601F0910701C8E0D1E0809120
:10FD4000080290910902103091F40091570001705F
:10FD50000130D9F303E000935700E8950091570074
:10FD600001700130D9F301E100935700E895099043
:10FD700019900091570001700130D9F301E0009310
:10FD80005700E8951395103898F011270091570007
:10FD900001700130D9F305E000935700E895009118
:10FDA000570001700130D9F301E100935700E89545
:10FDB0003296029709F0C7CF103011F00296E5CFC6
:10FDC000112484E170C0843709F05DC00E948FFC6B
:10FDD000809309020E948FFC809308022091060103
:10FDE0003091070180910C0237FF02C0826001C090
:10FDF0008D7F80930C02220F331F309307012093D5
:10FE000006010E948FFC90910C02853411F49160E0
:10FE100001C09E7F90930C020E948FFC803209F0FB
:10FE200085CE84E10E9467FC00E010E0809108022A
:10FE3000909109020817190708F037C080910C0249
:10FE4000E0910601F091070180FF04C0CF010E94FC
:10FE50006AFF0BC081FD02C0849107C0CF01A0E002
:10FE6000B0E01196ABBFFC0187910E9467FC8091C6
:10FE70000601909107010196909307018093060176
:10FE80000F5F1F4FD3CF8537A1F40E948FFC8032C4
:10FE900099F484E10E9467FC8EE10E9467FC87E987
:10FEA0000E9467FC85E00E9467FC80E10E9467FC7D
:10FEB0003DCE863709F4BACE809104018F5F8093DE
:10FEC0000401853009F032CEE0910201F091030186
:10FED00009952CCEF999FECF92BD81BDF89A99274C
:10FEE00080B50895262FF999FECF1FBA92BD81BD26
:10FEF00020BD0FB6F894FA9AF99A0FBE01960895AC
:04FF0000F894FFCFA3
:02FF040080007B
:040000031000F800F1
:00000001FF
